:020000040800F2
:10000000900B002065020008652400086D2200089E
:1000100061240008350800082D2C000800000000AD
:10002000000000000000000000000000E5250008BE
:10003000B908000800000000E1250008E9250008D3
:100040007F0200087F0200087F0200087F0200088C
:100050007F0200087F0200087F0200087F0200087C
:100060007F0200087F0200087F0200087F0200086C
:100070007F0200087F0200087F0200087F0200085C
:100080007F0200087F0200087F0200087F0200084C
:10009000390800087F0200087F0200087F0200087C
:1000A0007F0200087F0200087F0200087F0200082C
:1000B0007F0200087F0200087F0200087F0200081C
:1000C0007F0200087F0200087F0200087F0200080C
:1000D0007F020008812A00087F0200087F020008D2
:1000E0007F0200087F0200087F0200087F020008EC
:1000F0007F0200087F0200087F0200087F020008DC
:100100007F0200087F0200087F0200087F020008CB
:100110007F0200087F020008F92600087F0200081D
:100120007F0200087F0200087F0200087F020008AB
:100130007F0200087F0200087F0200087F0200089B
:10014000450800087F0200087F0200087F020008BF
:100150007F0200087F0200087F020008692B000868
:100160007F0200087F0200087F0200087F0200086B
:100170007F0200087F0200087F02000800000000E4
:100180007F0200087F02000800F002F800F05AF831
:1001900014A696E8000CB244B344DA4501D100F04D
:1001A00051F8BAE80F000FA696E83000A5EB040559
:1001B00004EB0607AAEB0704A7F101074FEA1515A0
:1001C0004FEA3414A4F10104AC4201D300F03AF830
:1001D00013F0010F18BFFB1A43F0010300F001F800
:1001E000DBE71847483D0000683D0000103A24BF97
:1001F00078C878C1FAD8520724BF30C830C144BF8C
:1002000004680C6070470000704700000023002461
:1002100000250026103A28BF78C1FBD8520728BF16
:1002200030C148BF0B607047642900F01F8163290B
:1002300000F0F181002070471FB503F02CFE1FBDB8
:1002400010B510BD00F02AFA1146FFF7F5FF02F0D5
:1002500035FF00F048FA03B4FFF7F2FF03BC02F0E9
:10026000E7FC00000948804709480047FEE7FEE731
:10027000FEE7FEE7FEE7FEE7FEE7FEE7FEE7FEE756
:1002800004480549054A064B70470000A1260008AE
:100290008901000890050020900B002090070020A5
:1002A00090070020704753EA020C00F069802DE9A6
:1002B000F04B4FF00006002B1FBFB3FA83F503FA93
:1002C00005F424FA05F65E4012BF1643B2FA82F531
:1002D00002FA05F4C5F120051EBF22FA05FC44EA26
:1002E0000C04203556EA044C4FEA144418BF641C31
:1002F0004FF000084FF00009904271EB030C39D326
:10030000002919BFB1FA81F701FA07F6B0FA80F7B0
:1003100000FA07F6C7F120071EBF20FA07FC46EADD
:100320000C062037B6FBF4FCA7EB0507103F07F0DF
:100330001F0BCBF120062CFA06F60CFA0BFB44BF80
:10034000B3460026202FA4BF5E464FF0000B5BEAA9
:10035000060C08BF4FF0010B19EB0B0948EB060820
:10036000ABFB027C06FB02CC0BFB03CCC01B71EB8E
:100370000C01C1E70B46024641464846BDE8F08BFA
:1003800013B5084318BF4FF0FF300146AFF30080AC
:10039000BDE81C40704700000FB4044910B503AA23
:1003A000029800F045F910BC5DF814FBE80200204B
:1003B0002DE9F0410E460446002020622046E16807
:1003C000884730B3252805D0D4E901219047206A19
:1003D000401CF2E7E168204600278847050018D056
:1003E000A5F14100192802D820354FF400673246A4
:1003F000294620462760FFF717FF40B1012804D0A7
:10040000F61D26F007060836D8E7361DD6E728463B
:10041000DAE7206ABDE8F08170B50C460546012A8E
:1004200005D02878800600D5EA69002302E0012380
:1004300005E05B1C934202D2E05C0028F9D1A86978
:10044000E618C01AA861286A184428622846AFF343
:10045000008004E0D5E9012114F8010B9047B44273
:10046000F8D32846AFF3008070BD00002DE9F041BD
:100470000646002410687529314616A510D0AFF342
:100480000080002802DA404213A507E031688A079D
:1004900001D512A502E0490704D511A5012401E008
:1004A000AFF3008000210A2206F1240709E0B0FB27
:1004B000F2FCB0FBF2F302FB1C003030785418461B
:1004C000491C0028F3D123462A463046BDE8F041B6
:1004D00000F03EB8000000002D0000002B000000DE
:1004E000200000004FF0000200B5134694469646E7
:1004F000203922BFA0E80C50A0E80C50B1F1200137
:10050000BFF4F7AF090728BFA0E80C5048BF0CC0E4
:100510005DF804EB890028BF40F8042B08BF704742
:1005200048BF20F8022B11F0804F18BF00F8012BB4
:100530007047704770477047704710B500F08AF8F1
:10054000006810BD10B5044600F084F8046010BDCA
:100550002DE9F0470D4699469246044600F12408DD
:100560000168880604D5E06921F01001216000E0EF
:100570000120A84201DD471B00E00027A1697A198C
:1005800002EB0900081AA0612078C00602D42046B8
:10059000AFF30080002608E0D4E901211AF8060034
:1005A0009047206A401C761C20624E45F4DB207880
:1005B000C0060AD52046AFF3008006E0D4E9012149
:1005C00030209047206A401C2062381EA7F10107A6
:1005D000F4DC07E0D4E9012118F805009047206A0F
:1005E000401C2062281EA5F10105F3DC2046AFF374
:1005F00000802078000602D50220BDE8F0870120A7
:10060000FBE710B5436913B1AFF3008001E0FFF7DA
:1006100003FF012010BD127800F124010A700022AE
:100620004A700122EDE711684FF0FF32E9E7000060
:10063000074B70B50D467B4400F015F8044628467C
:1006400000F024F810B14FF0FF3070BD204670BDAF
:10065000572A0000004870479800002001694A1C92
:1006600002610878704700B58FB0CDE901310021F3
:10067000059105497944CDE9031011466846FFF715
:1006800097FE0FB000BD0000E5FFFFFF007B00F00C
:100690008000704700487047980000207546FFF7BB
:1006A000F9FFAE4605006946534620F0070085462F
:1006B00018B020B5FFF7E4FDBDE820404FF000067C
:1006C0004FF000074FF000084FF0000BAC46ACE8CD
:1006D000C009ACE8C009ACE8C009ACE8C00921F029
:1006E00007018D46704710B50446AFF300802046E1
:1006F000BDE81040FFF7AFBD70B52DED068B84B09F
:1007000002F0A6FB02F0E0FA40F20810C2F200008C
:1007100040F2B02290ED000BC2F2000290ED028B8D
:1007200051EC100B92ED000B92ED029B53EC102B51
:1007300002F084FD41EC100B40F2D8258DED020B48
:100740009DF80F00C2F2000580F080008DF80F00C8
:100750009DED02AB51EC180B53EC192B85ED00AB62
:1007600002F06CFD41EC100B40F268568DED000B71
:100770009DF80700C2F2000680F080008DF80700A7
:1007800096ED001B9DED000B51EC110B85ED020B5E
:1007900002F022FD08EE100A51EC1A0B02F01CFDCB
:1007A00040F21824C2F2000400EE900A2046B0EE97
:1007B000480A01F059FE96ED020B51EC100B02F0C5
:1007C0000BFD95ED020B08EE100A51EC100B02F038
:1007D00003FD40F26025C2F2000500EE900A2846B3
:1007E000B0EE480A01F040FE94ED088A18EE100AB7
:1007F00003F0B6FA95ED089A41EC100B19EE100AC9
:1008000086ED000B03F0ACFA41EC100BBDEEC81AFC
:1008100011EE100ABDEEC91A11EE101A00220023C3
:1008200086ED020B04B0BDEC068BBDE8704000F015
:100830000FB80000FEE7000040F2C830C2F200002E
:1008400000F0A6B940F2F030C2F2000000F0A0B90A
:1008500010B582B040F2583CC2F2000C4FF4007E5A
:10086000CCF800E04FF0000ECCE902EE40F2503E32
:100870000824C2F2000ECCF81040040A8EF80100E1
:10088000080A8EF80200100A8EF80400180A8EF882
:10089000060040F2C8308EF803108EF805208EF85E
:1008A0000730C2F2000001AB614672468EF800408C
:1008B00000F020F802B010BD7047000040F2703028
:1008C000C2F20000012101607047000090F8202072
:1008D000013A012A04D8006800F11402002004E063
:1008E00000F1240201204FF48021136819431160A4
:1008F0007047000010B590F820E0D0F800C0AEF1CD
:10090000010EBEF1010FDCF808E00DD81EF0E05F2B
:1009100010D0CEF3016EBEF1030F11D100F124010E
:1009200001204FF4000235E000F1240101204FF4D2
:1009300080222FE000F1240101204FF4001229E071
:10094000012000FA0EF01860886828B14B68CC6866
:1009500044EAC303034303E00868CB6843EA405317
:100960000CEB0E10C0F880310B69C0F88431097DA2
:10097000012905D100F5C2710B6843F480730B6047
:100980005168C0F88C11126800F5C071C0F8882158
:10099000002001220B681A430A6010BD90F8202045
:1009A000013A012A30D8B0B546F20060C4F2000026
:1009B000026842F001020260026822F47C52026086
:1009C000D1F814E0CC694A6A0368012C43EA022298
:1009D00002600EF01F024FF0010303FA02F2C36936
:1009E0006FEA020C23EA0203C36113D02CBBC36875
:1009F00003EA0C03C360CB688C8844EA034300EB32
:100A0000CE0423640B4611E0416A41F48021416227
:100A100001207047C3681343C3600B688C8844EAA5
:100A2000034300EBCE04236401F10C038C681B88A4
:100A300043EA044300EBCE04636443688D6943EAF0
:100A40000204D1F810E0096A002D08BF03EA0C0483
:100A500044604369BEF1000F43EA020408BF03EAA1
:100A60000C040129446102D1C1691143C1610168CB
:100A700021F0010101600020B0BD000070470000BE
:100A800010B590F82040013C012C71D8D0F800C07E
:100A900000290CBFDCF80C40DCF81040A4076DD036
:100AA000046804EB011CDCF8B0410CF5D87E14F0AE
:100AB00004049460DCF8B04119BFE4085460640D8C
:100AC0001460DEF800400029C4F34004D460DCF870
:100AD000B44104F00F041461DCF8B441C4F30724FA
:100AE0009461DCF8B4414FEA14445461DCF8B82155
:100AF0001A70026802EB0112D2F8B8214FEA1222F2
:100B00005A70026802EB0112D2F8B8214FEA124281
:100B10009A70026802EB0112D2F8B8214FEA126211
:100B2000DA70026802EB0112D2F8BC211A71026875
:100B300002EB0112D2F8BC214FEA12225A7102686C
:100B400002EB0112D2F8BC214FEA12429A710268FC
:100B500002EB0112D2F8BC214FEA1262DA7100688E
:100B60000CBF00F10C0100F11001002020220AE06E
:100B700000F1240101204FF4802204E000F124015F
:100B800001204FF400120B681A430A6010BD0000E8
:100B90002DE9F04F81B0044600684669D0F8049012
:100BA0008768D0F80CB0D0F810A0D0F81880F10702
:100BB00003D1002530071CD423E0F90710D0012110
:100BC000BA07816009D4780700F1AA80380700F1DC
:100BD000B080204600F06CFA02E0204600F06AFA8D
:100BE0000025F80500F18480F80300F1AA803007A1
:100BF00007D51BF0100004D0206845F400751021C3
:100C0000C160700708D51BF0080005D020680821D6
:100C1000C160204600F0E6F9B00706D52068C0683C
:100C2000800702D0204600F0DFF9700607D51AF0E1
:100C3000100004D0206845F4806510210161B006E1
:100C400008D51AF0080005D0206808210161204667
:100C500000F0FAF9F00606D520680069800702D096
:100C6000204600F0F3F9B00308D519F0100005D0C4
:100C7000206810214160204600F0EAF9F00308D511
:100C800019F0080005D0206808214160204600F0D6
:100C90001BFA300440F18F805FEA497040F1888090
:100CA00006F4807008EA102028435FEA8871014644
:100CB00048BF41F00201B20558BF01465FEA4870E3
:100CC0000D4648BF45F00405700558BF0D46300578
:100CD0006ED518F070006BD010380009052862D866
:100CE000DFE800F0035356595C5F45F008055AE011
:100CF00020684FF48071BA0581600AD4780512D457
:100D0000380519D4204600F0D7F9F8037FF56FAF06
:100D100017E0204600F0D2F9F8037FF568AF10E045
:100D20004FF400655DE705F50055F8037FF55FAF0B
:100D300007E04FF4805554E705F58045F8037FF54B
:100D400056AF20684FF48031BA0381600AD478032B
:100D50000FD4380313D4204600F0B2F930073FF522
:100D600048AF4EE7204600F0ADF930073FF541AF00
:100D700047E705F5004530073FF53BAF41E705F58F
:100D8000803530073FF535AF3BE745F010050AE009
:100D900045F0200507E045F0400504E045F08005FA
:100DA00001E045F480752068816921F0700181615E
:100DB0002068042141604DB1606A40EA0501204687
:100DC000616201B0BDE8F04FFFF758BE01B0BDE869
:100DD000F08F0000002804BF01207047B0B5044622
:100DE00090F8200010B9204600F06EF820680168E5
:100DF00021F00201016000F04DFA054620684168CB
:100E0000890705D500F046FA401B0B28F6D310E001
:100E1000016841F00101016000F03CFA054600BFA5
:100E200020684168C9070DD100F034FA401B0B2837
:100E3000F6D3606A052140F400306062012084F836
:100E40002010B0BD217E0268012922F0800208BF77
:100E500080320260617E0268012922F0400208BFF0
:100E600040320260A17E0268012922F0200208BF00
:100E700020320260E17E0268012922F0100218BFD0
:100E800010320260217F0268012922F0080208BFA7
:100E900008320260617F0268012922F0040208BF63
:100EA00004320260D4E901C2D4E9033561691A430E
:100EB0002A431143ACF101021143C1610020012119
:100EC000606284F82010B0BD10B586B0006846F6A8
:100ED0000002C4F2000200219042CDE90411CDE9E4
:100EE0000211019133D046F20041C4F20001884260
:100EF00076D140F21811C2F200010A6843F64000B0
:100F0000C4F20200531C0B6052B900210091016829
:100F100041F000710160016801F0007100910099D9
:100F20000021009150F8101C142441F0080140F8F1
:100F3000101C50F8100C032100F0080000900098DD
:100F400040F20040C4F2020000F5006034E043F6D5
:100F50004000C4F202000091016841F0806101602C
:100F6000016801F080610091009940F21811C2F20D
:100F700000010A68531C0B6052B9002100910168FE
:100F800041F000710160016801F000710091009969
:100F90000021009150F8101C402441F0020140F85B
:100FA000101C50F8100C602100F002000090009816
:100FB00040F20040C4F2020001910221029100219E
:100FC0000391032104910921059101A900F092F8F0
:100FD00020460021002200F0E1F9204600F0CEF981
:100FE00006B010BD7047000080B58AB003AA01ABFF
:100FF0000021FFF745FD0398A0F20121062920D822
:101000000138C1B2BDF80420890051FA80F040F2E5
:10101000D84112BAC2F20001120C31F8103021F896
:10102000102001EB4000BDF80610BDF8082009BAF9
:10103000090C418011BA9DF80A20090C03818180B6
:1010400082710AB080BD0000704700007047000048
:1010500070470000B0B5044690F8200001281DD16B
:10106000022084F820002068016821F0010101605D
:1010700000F010F9054600BF20684068C00713D093
:1010800000F008F9401B0B28F6D3606A40F40030EA
:101090006062052084F820000120B0BD606A40F441
:1010A000002060620120B0BD00206062B0BD000081
:1010B0007047000070470000704700007047000054
:1010C000704700007047000070470000B0B504464C
:1010D00000F0E0F8054640F29000C2F2000000780F
:1010E000611C18BF044400BF00F0D4F8401BA042AC
:1010F000FAD3B0BD2DE9F04F82B000F13E4202F1CB
:10110000FF72870541F6004643F6004E47EA9227F4
:10111000C4F202060822C4F2010EB04208BF072240
:101120000125002400264FF00008072F38BF3A465B
:10113000009208E008F101080436B8F1100F04F13C
:10114000020400F09D800F6805FA08FC17EA0C09FC
:10115000F0D04F6847F01007122F12D16FF0030242
:1011600002EA5807074406F01C050F22D7F820A012
:1011700002FA05F30A692AEA0303AA4001251A4381
:101180003A6202680323D1F804A0A3406FEA030B7C
:101190009A430AF00303A3401A43BAF1120F026004
:1011A00014D805FA0AF212F0061F0FD08268CB6835
:1011B00002EA0B02A3401A4382604268CAF300139A
:1011C00022EA0C0203FA08F31A434260C2688B68F1
:1011D00002EA0B02A3401A435FEACA03C260A9D520
:1011E000002243F644030192C4F202031A684FF648
:1011F000084C42F480421A601A68CFF6FF7C02F471
:1012000080420192019A28F00302724452F80C3095
:1012100006F00C070F25BD40AB43009D05FA07F70C
:101220003B4342F80C30DEF800204B6842EA0907E5
:10123000DD0358BF22EA0907CEF80070DEF804206B
:101240009D0342EA090758BF22EA0907CEF8047055
:10125000DEF80820DD0242EA090743F60C4558BFD4
:1012600022EA0907CEF80870C4F201052A689B0239
:1012700042EA090758BF22EA09072F60012559E70A
:1012800002B0BDE8F08F0000002A08BF09048161A8
:101290007047000040F28850C2F2000000687047BA
:1012A00040F2900040F28851C2F20000C2F2000108
:1012B00000780A68104408607047000080B543F663
:1012C0000040C4F20200016841F40071016001684D
:1012D00041F480610160016841F480710160032084
:1012E00000F088F8002000F005F800F02BF800204E
:1012F00080BD0000B0B540F29002C2F2000240F2A0
:1013000040011278C2F2000142F210730968B3FB87
:10131000F2F20446B1FBF2F1084600F003FB0F2C99
:101320004FF001050CD858B94FF0FF30214600228C
:10133000002500F033F840F29400C2F2000004608F
:101340002846B0BD82B0002043F640010190C4F2AF
:1013500002014A6842F480424A604A6802F48042CC
:101360000192019A0090086840F080500860086877
:1013700000F080500090009802B07047002848BFED
:10138000704700F01F01012202FA01F14EF2001233
:101390004009CEF2000242F82010704710B54EF618
:1013A0000C5CCEF2000CDCF80030C3F3022E8EF0A1
:1013B0000704042C28BF0424BEF103034FF0FF3EB2
:1013C0000EFA04F438BF0023A14399400EFA03F348
:1013D0009A43114300F1604200F00F03090102F546
:1013E0006442043B6344002848BF03F10C021170BF
:1013F00010BD00004EF60C51CEF200010A684FF607
:10140000FF031A4060F30A2242F0806040F0FD7052
:10141000086070472DE9F041002800F0878043F60E
:101420000808C4F202080446D8F8F8030D4600F094
:101430000F00884207D288F8F853D8F8F80300F074
:101440000F00A84272D12068810717D5410705D542
:10145000D8F8001041F4E051C8F80010010705D594
:10146000D8F8001041F46041C8F80010D8F8001016
:10147000A26821F0F0011143C8F80010C0073BD169
:10148000D8F8F80300F00F00A84207D988F8F853FD
:10149000D8F8F80300F00F00A84247D120684107B0
:1014A00007D5D8F80010E26821F4E0511143C8F8DC
:1014B0000010000708D5D8F80000216920F460402A
:1014C00040EAC100C8F8000000F078F8D8F8001031
:1014D00043F6C862C1F30311C0F60002515C002458
:1014E000C84040F24001C2F2000108600020FFF74E
:1014F00001FF2046BDE8F0816068811E022907D205
:1015000058F8081C89015CBF0120BDE8F08110E09B
:10151000012807D158F8081C89035CBF0120BDE8E9
:10152000F08106E058F8081C890702D40120BDE8C4
:10153000F081D8F8001021F003010843C8F800003A
:10154000FFF7A8FE064641F2883700BFD8F8000032
:10155000616800F00C00B0EB810F91D0FFF79AFEAC
:10156000801BB842F2D90320BDE8F08140F2400070
:1015700043F60801C2F20000C4F2020100680968E3
:1015800043F6D862C1F38221C0F60002515CC84024
:101590007047000040F2400043F60801C2F200002C
:1015A000C4F202010068096843F6D862C1F342310F
:1015B000C0F60002515CC8407047000010B543F609
:1015C0000404C4F20204606800F00C0008280AD089
:1015D000042819BF42F20040C0F2F40041F6003086
:1015E000C0F2B70010BD206821682368490241F6A7
:1015F0000031C0F2B70100F03F02C3F388105CBFB6
:1016000042F20041C0F2F401A1FB00010023FEF709
:101610004AFE21680222C1F3014102EB4101B0FB05
:10162000F1F010BD002804BF012070472DE9F04102
:1016300082B00446007843F60006C007C4F20206F2
:1016400047D0B06800F00C00042816D0B06800F055
:101650000C00082802D1706840020ED46568B5F508
:10166000A02F13D0B5F5803F14D0306820F480301F
:101670003060306820F480200FE03068800328D587
:10168000606830BB012002B0BDE8F081306840F4F2
:1016900080203060306840F480303060FFF7FAFD21
:1016A000002D054612D000BF3068800311D4FFF72B
:1016B000F1FD401B6428F7D9F8E000BFFFF7EAFD11
:1016C000401B64284FF0030000F2B48030688003B0
:1016D000F4D42078800718D5B06810F00C0F07D02C
:1016E000B06800F00C0008285FD1706840025CD43C
:1016F0003068800702D5E068012815D1306821697B
:1017000020F0F80040EAC1003060207800070FD4D4
:101710002078400723D4A569002D00F0FE80B06832
:1017200000F00C00082871D1012002B0BDE8F08162
:101730006069002840F20000C4F2472056D0012121
:10174000C0F8801EFFF7A6FD054600BF706F80073A
:10175000DED4FFF79FFD401B0228F7D9A6E0306CCE
:101760005FEAC0080AD400200190306C40F080503D
:101770003064306C00F080500190019847F200070F
:10178000C4F200073868C00523D4386840F480707C
:101790003860FFF77FFD05463868C00519D4FFF7AC
:1017A00079FD401B0228F7D980E0E068002850D07E
:1017B0000020C4F2472001210160FFF76BFD0546C0
:1017C000306880079AD4FFF765FD401B0228F7D9DF
:1017D0006CE0A568052D51D0012D53D0306F20F05D
:1017E00001003067306F20F004004EE00021C0F8A7
:1017F000801EFFF74FFD0546706F80077FF588AFAD
:10180000FFF748FD401B0228F6D94FE00027C4F23D
:10181000472700203866FFF73DFD022D05460DD114
:101820003068800159D5FFF735FD401B02284FF085
:101830000300F5D902B0BDE8F08100BF3068800137
:101840006BD5FFF727FD401B03284FF00300F5D3AE
:10185000F0E70020C4F2472000210160FFF71AFDE5
:10186000054600BF306880077FF54FAFFFF712FDD8
:10187000401B02284FF00300F4D9DBE7306F40F043
:1018800004003067306F40F001003067FFF702FD61
:10189000002D054641F2883713D000BF306F800716
:1018A00012D4FFF7F7FC401BB842F7D9032002B06F
:1018B000BDE8F081FFF7EEFC401BB8424FF003009B
:1018C000B8D8306F8007F5D4B8F1000F3FF523AFDB
:1018D000306C20F0805030641DE704F11C052FCDE2
:1018E000084340EA8210D9034FF6FF729143A1F5F5
:1018F000803140EA05600843706001203866FFF7D8
:10190000C9FC04463068800107D4FFF7C3FC001B04
:1019100002284FF00300F5D98CE7002002B0BDE8A3
:10192000F0810000411E0020B0EB116F1CBF0120B0
:1019300070474EF21002CEF2000251604EF6235173
:10194000CEF20001F0230B70072190601160704708
:10195000704700007047000090F83C20012A4FF0CB
:10196000020219D010B580F83D200268D2F804E0D8
:10197000D2F808C0D1E900142EF0700319432CF0FE
:1019800080032343516093600121002280F83D10C1
:1019900080F83C20BDE8104010467047002804BF86
:1019A0000120704710B5044690F83D0028B900208A
:1019B00084F83C00204600F00DF8022084F83D0039
:1019C0002068211D00F09EFE012084F83D000020CB
:1019D00010BD0000006841F20001C4F2000188421D
:1019E00018BF704780B582B00020019043F64000D8
:1019F000C4F202000168032241F010010160006896
:101A0000032100F01000019001983620FFF7C6FC7A
:101A1000362002B0BDE88040FFF7B0BC0068C16866
:101A200041F00101C160816801F00701062903D07E
:101A3000016841F0010101600020704790F83C20EE
:101A4000012A4FF0020200F0C38080B5012380F824
:101A50003C3080F83D20D0F800C04FF67772DCF8BB
:101A6000083023EA0202CCF808200B683F2B1CDD6B
:101A70005F2B20DD602B4FD0B3F5005F6CD0702B57
:101A800040F09E80D1E901E3C968DCF8082043EA10
:101A90000E0322F47F4243EA01211143CCF80810DF
:101AA000DCF8081041F0770188E01F2B28DC5BB3DD
:101AB000102B29D084E0402B61D0502B40F0808047
:101AC000D1F804E0C968DCF82030DCF8202022F0EE
:101AD0000102CCF82020DCF8182022F0F00242EAC3
:101AE000011123F00A0242EA0E02CCF81810CCF8D9
:101AF0002020DCF8081041F0570121F020015DE0C2
:101B0000202B01D0302B5BD1DCF8081021F07001C4
:101B1000194341F0070151E0D1F804E0C968DCF84D
:101B2000203023F01003CCF82030DCF81830DCF83B
:101B3000202023F4704322F0A00243EA013142EA5C
:101B40000E12CCF81810CCF82020DCF8081041F068
:101B5000670121F0100131E0D1E901E3C968DCF847
:101B6000082043EA0E0322F47F4243EA0121114395
:101B7000CCF80810DCF8081041F480411EE0D1F8E0
:101B800004E0C968DCF82030DCF8202022F00102F3
:101B9000CCF82020DCF8182022F0F00242EA0111F3
:101BA00023F00A0242EA0E02CCF81810CCF82020EA
:101BB000DCF8081041F0470121F03001CCF80810A2
:101BC0000121002280F83D1080F83C20BDE88040D3
:101BD000104670477047000010B504460068016960
:101BE000890744BFC1685FEA81713FD420680169F9
:101BF000490744BFC1685FEA417143D42068016965
:101C0000090744BFC1685FEA017148D420680169CF
:101C1000C90644BFC1685FEAC1614CD4206801694C
:101C2000C9071CBFC1685FEAC17151D12068016951
:101C3000090644BFC1685FEA016150D420680169A8
:101C4000490644BFC1685FEA41614FD42168086911
:101C5000800646BFC8685FEA806010BD6FF0200252
:101C600020460A61BDE81040FFF774BE6FF0020124
:101C7000016101212177806980073ED02046FFF76E
:101C8000A9FF40E06FF00401016102212177806922
:101C900010F4407F3AD02046FFF79CFF3CE06FF005
:101CA0000801016104212177C069800737D02046EF
:101CB000FFF790FF39E06FF01001016108212177F3
:101CC000C06910F4407F33D02046FFF783FF35E032
:101CD0006FF001010161204600F038F8A6E76FF0CF
:101CE000800101612046FFF733FEA7E76FF0400156
:101CF0000161204600F052F9A8E7204600F022F8E2
:101D0000204600F021F8002020776FE7204600F001
:101D100019F8204600F018F8002020776EE72046DA
:101D200000F010F8204600F00FF8002020776DE753
:101D3000204600F007F8204600F006F80020207743
:101D40006CE700007047000070470000006841F237
:101D50000001C4F20001884218BF70472DE9F04F1E
:101D600081B02DED028B82B040F2F80840F2500AAB
:101D70000025C2F20008C2F2000A10E04FF0FF3066
:101D800040F23C315844C2F2000141F825000135CF
:101D900008F10808012D0AF1080A40F09980ECB218
:101DA000204601F07FF9008940F22651C2F200017D
:101DB00021F81500204601F075F9008840F21E5602
:101DC000C2F2000626F81500204601F06BF9808863
:101DD00040F23651C2F2000121F81500204601F010
:101DE00061F940F28001C2F20001408851F82510EB
:101DF00040F22E52C2F2000222F81500480001F013
:101E000067FC024640F24800C2F2000090ED000B71
:101E10000B4651EC100B01F0EBFC9AED000B024667
:101E20000B4651EC100B01F0E3FC40F23802C2F219
:101E3000000292ED000B53EC102B01F0B3FA36F9CF
:101E4000154001902046894601F042FC40F22802EC
:101E5000C2F2000292ED000B53EC102B01F0A2FA3B
:101E6000064640F23C30C2F2000050F825B00F4662
:101E7000584601F02DFC02460B463046394601F02B
:101E8000DDF9024601980B46494601F0B1FC41ECF0
:101E9000100B40F22650C2F2000030F9151088ED08
:101EA000000BB1F57A6FA4EB010004DA41F20402F1
:101EB00090423FF763AFB1F57A6F7FF768AF4EF6A8
:101EC000FB71CFF6FF7188423FF761AF012057E702
:101ED00040F26856C2F2000696ED000B51EC100B72
:101EE00001F07AF940F2D825C2F2000595ED000B19
:101EF00008EE100A51EC100B01F06EF940F21824B4
:101F0000C2F2000400EE900A2046B0EE480A00F04B
:101F1000ABFA96ED020B51EC100B01F05DF995ED6B
:101F2000020B08EE100A51EC100B01F055F940F2CB
:101F30006025C2F2000500EE900A2846B0EE480A7D
:101F400000F092FA206A01F00BFF41EC100B286AB6
:101F500086ED000B01F004FF41EC100B40F2F8009D
:101F6000C2F2000086ED020B90ED000B90ED028BAB
:101F700051EC100B01F030F940F2A824C2F2000439
:101F8000206051EC180B01F027F9606002B0BDEC45
:101F9000028B01B0BDE8F04F7047000070470000B1
:101FA000002804BF0120704710B5044690F839009E
:101FB00028B9002084F83800204600F021F82420B9
:101FC00084F839002068C16821F40051C1602046BE
:101FD00000F02AFC2068016921F490410161416907
:101FE00021F02A014161C16841F40051C160002023
:101FF0002021E06384F8391084F83A1010BD000005
:102000002DE9F04387B0006841F20042C4F20102BA
:1020100000219042CDE90511CDE9031102914FD085
:1020200041F20001C4F2010188427DD1002043F653
:1020300030010190C4F202014A69002442F010020A
:102040004A614A69C4F2020402F010020192019A44
:1020500001900A6802AD42F002020A600A684FF07D
:10206000020802F002020192019A019008684FF002
:10207000010940F0010008600868032600F0010033
:102080000190019880200290072704F5806029467E
:10209000CDF80C80CDF8109005960697FFF72AF83A
:1020A0004FF4007002A981E8010320462946CDE9DA
:1020B0000567FFF71FF825200021002225242EE0C8
:1020C00043F630000191C4F20200426942F020025E
:1020D0004261426902F020020192019A0191016875
:1020E00041F040010160006802A900F04000019049
:1020F00001984FF484400290022003900120049044
:1021000003200590082006900020C4F2020000F58C
:10211000C050FEF7EFFF4720002101224724FFF7C0
:102120003DF92046FFF72AF907B0BDE8F08300002B
:102130002DE9F041044690F8390020280ED10F46D1
:1021400000294FF0010000F08E801646002A08BFDB
:10215000BDE8F08194F83800012802D10220BDE8E2
:10216000F081012084F838000020E06321201D4622
:1021700084F83900FFF78EF8A684E684E18C804667
:10218000002944D06E1C05E017F8010B2168486057
:10219000E08CE0B3E08C0138E0842068A16800683E
:1021A000B1F5805F4FEA006004D1002816D496B1E3
:1021B0005DB934E00028E7D43EB305BB2FE000BF93
:1021C000016809060AD4002EFAD0FFF763F8A0EBE5
:1021D0000800A84223D82068F2E700BF38882169A8
:1021E00022686FF35F200029506014BF0137023767
:1021F000CEE700BF01680906C6D4002EFAD0FFF76B
:1022000049F8A0EB0800A84209D82068F2E7206846
:102210000068400620D415B16E1C10D015E020686F
:10222000C16821F4D071C160416921F001014161AF
:10223000202084F8390084F83A00032010E0206858
:102240000168490608D4002EFAD0FFF723F8A0EB66
:102250000800A842F3D9E2E7202084F839000020E2
:10226000002184F83810BDE8F0810000FEE700008E
:1022700080B540F2C83046F20041C2F20000C4F21C
:1022800000010322002380E80E0000F10C014FF44E
:10229000102C4FF4001E81E8085083618383FEF701
:1022A00099FD002808BF80BDBDE88040FEF706BB51
:1022B00080B540F2F03046F60001C2F20000C4F2F0
:1022C00000010322002380E80E0000F10C014FF40E
:1022D000102C4FF4001E81E8085083618383FEF7C1
:1022E00079FD002808BF80BDBDE88040FEF7E6BA52
:1022F000F0B587B0002543F630000695CDE90455CA
:10230000CDE902550195C4F20200016841F600448E
:1023100041F0010101600168C4F2020401F0010111
:102320000191019901950168012241F002010160CA
:1023300001684FF4E05601F0020101910199019505
:102340000168012741F008010160016801F00801FE
:10235000019101990195016841F0800101600068D7
:102360004FF4E05100F08000019001982046FEF704
:102370008BFF02A92046CDE90267CDE90475FEF77F
:10238000B9FE07B0F0BD000080B586B040F218403D
:1023900000220021C2F20000C4F2010244F29F13A5
:1023A00041F2873CCDE90411CDE90211CDE90011DC
:1023B000C0E90023C0E9021CC0E904118161FFF7F4
:1023C000EDFA002818BFFEF779FA4FF4805002901A
:1023D00040F21840C2F2000002A9FFF72FFB0028CC
:1023E00018BFFEF76BFA0020CDE9000040F218405C
:1023F000C2F200006946FFF7AFFA002818BFFEF7E7
:102400005DFA40F21840C2F20000FFF707FB06B089
:1024100080BD000010B540F2584441F20000C2F205
:102420000004C4F201004FF4E13100220C2384E8DF
:1024300007002046C4E90322C4E90532E261FFF740
:10244000AFFD002818BFFEF739FA2068C16841F0D7
:102450002001C160C16841F01001C16010BD0000E1
:10246000FEE7000070470000E0B3017890ED0F1A1E
:1024700090ED102A80ED070A30EEC00A0129C0ED68
:10248000060A80ED0F0A80ED101A80ED112A2CD07B
:1024900000297AD190ED024A90ED0A6A90ED012A66
:1024A00090ED053A24EE004A90ED035A34EE064AC8
:1024B00020EE022AD0E90C2130EE410AB4EE434A64
:1024C00080ED0C0A20EE050AF1EE10FA80ED092AE3
:1024D00080ED0A4AC0E90D2180ED0B0A3BDD80ED5D
:1024E0000A3A41E09FED320A704790ED015A90EDB3
:1024F000026A30EE414A31EE011A90ED037A24EE81
:10250000054A20EE065A30EE410A32EE000AD0E9C2
:102510000C2180ED0C0A20EE070A34EE051A90ED2E
:10252000082A90ED043A80ED0B0A31EE000A32EEF3
:10253000000AB4EE430AF1EE10FA80ED094A80ED8C
:102540000A5AC0E90D2180ED080A21DD80ED083A24
:1025500090ED080A7047B1EE433AB4EE434AF1EE0B
:1025600010FAB8BF80ED0A3A90ED0A3A90ED041ADD
:1025700032EE032A30EE020AB4EE410AF1EE10FA0E
:1025800080ED080A07DD80ED081A90ED080A704713
:10259000B1EE431A01E0B1EE411AB4EE410AF1EE98
:1025A00010FAB8BF80ED081A90ED080A704700BF16
:1025B00000000000002818BF002A00D1704780B535
:1025C00001701168416051688160916880ED040A72
:1025D000C160C0ED050A20302821FDF783FF80BDD2
:1025E0007047000070470000FEF75ABEF0B593B088
:1025F00007AC20463021FDF775FF002543F640006B
:102600000695CDE90455CDE902550195C4F20200C5
:102610000168022741F0805101600068012600F046
:1026200080500190019847F200000195C4F200002B
:10263000016841F480410160006800F4804001902D
:1026400001984FF4803008904FF480000E900620DF
:102650000F90A820CDE9100704201290204607967D
:102660000D97FEF7DFFF002840F270344FF00F00A7
:10267000C2F2000418BF2660CDE902074FF4A05053
:1026800005904FF48050069002A80521266004951D
:10269000FEF7C0FE00281CBF0120206013B0F0BD73
:1026A0004EF68850CEF2000001684FF0000C41F465
:1026B0007001016043F60001C4F202010A6842F0B1
:1026C00001020A60C1F808C00B684FF6FF72CFF62E
:1026D000F6621A400A6043F21002C2F200424A60F7
:1026E0000A6822F480220A60C1F80CC04FF0006131
:1026F00040F8801C7047000040F27430C2F20000C5
:10270000FFF76ABA10B540F6FF3E0368C4F2000E48
:1027100040F2004C7045C4F2010C0FDCB0F1804F68
:1027200019D040F20042C4F20002904213D040F6A9
:102730000002C4F2000290420DD010E040F60042C8
:10274000C4F20002904206D0604504D00022C4F2D8
:102750000102904203D14A6823F07003134341F60B
:10276000FF72C4F2000290420DDC70451FDCB0F134
:10277000804F41D040F20042C4F2000290423BD070
:1027800040F6000221E043F6FF72C4F201029042DB
:1027900020DC42F20002C4F2000290422CD000225F
:1027A000C4F20102904227D0604525D028E040F6CF
:1027B0000042C4F2000290421ED041F60002C4F270
:1027C0000002904218D041F60042C4F2000290424A
:1027D00012D015E044F20002C4F2010290420BD084
:1027E00044F60002C4F20102904205D044F20042D5
:1027F000C4F20102904203D1CA6823F44073134328
:1028000023F080024B69D1F800E08C681A43026023
:10281000C46240F48062C0F828E0624504BF0969E0
:1028200001630121416110BD2DE9F04381B00446EF
:10283000006804F108030ECB0769194327F44057D9
:102840003A430261626949F20C671143E269C36865
:1028500048F21F58BB4319431143C1604169A36942
:1028600021F440711943416141F20041B2F5004F3A
:10287000C5F2EB1840F48060C4F2010138D18842FF
:102880006ED1FEF787FE6168192778434900B0FBD7
:10289000F1F0A0FB08016FF00F0000EA5106FEF70F
:1028A00079FE616878434900B0FBF1F5FEF772FEEE
:1028B000616878434900B0FBF1F04FF06409A0FB78
:1028C0000801480900FB1950322101EBC000A0FBB0
:1028D00008014FF4F87000EA11100644FEF75AFEA2
:1028E000616878434900B0FBF1F5FEF753FE6DE0F7
:1028F000884278D1FEF74EFE616819277843890037
:10290000B0FBF1F0A0FB08016FF00F0000EA5105E9
:10291000FEF740FE616878438900B0FBF1F6FEF7F0
:1029200039FE616878438900B0FBF1F04FF064092B
:10293000A0FB0801480900FB1960322101EB0010DF
:10294000A0FB0801F02000EA51104619FEF722FE14
:10295000616878438900B0FBF1F5FEF71BFE77E074
:10296000FEF704FE6168192778434900B0FBF1F0D7
:10297000A0FB08016FF00F0000EA5105FEF7F6FD1D
:10298000616878434900B0FBF1F6FEF7EFFD61683E
:1029900078434900B0FBF1F04FF06409A0FB080157
:1029A000480900FB1960322101EBC000A0FB0801BF
:1029B0004FF4F87000EA11104619FEF7D7FD616870
:1029C00078434900B0FBF1F5FEF7D0FD616878432C
:1029D0004900B0FBF1F0A0FB0801480900FB1950C9
:1029E0000721C00040E0FEF7C1FD61681927784368
:1029F0008900B0FBF1F0A0FB08016FF00F0000EAC6
:102A00005105FEF7B3FD616878438900B0FBF1F62C
:102A1000FEF7ACFD616878438900B0FBF1F04FF040
:102A20006409A0FB0801480900FB1960322101EB91
:102A30000010A0FB0801F02000EA51104619FEF733
:102A400095FD616878438900B0FBF1F5FEF78EFDD6
:102A5000616878438900B0FBF1F0A0FB08014809E8
:102A600000FB19500F2100013230A0FB080201EADF
:102A7000521021683043886001B0BDE8F083000047
:102A800040F25840C2F200000068016889060BD489
:102A90000168C90658BF7047406840F2D420C2F2AE
:102AA00000000021017070474068C1B20D2901D0BB
:102AB0000A291CD1F0B581B040F2D426C2F200063A
:102AC000307840F2C021C2F2000100220A54087896
:102AD00040F270072B28C2F2000717D197ED000BC8
:102AE0009FED1F1B51EC100B53EC112B23E040F218
:102AF000D422C2F2000211781229D4D84B1C1370D0
:102B000040F2C022C2F20002505470472D2818D162
:102B100097ED000B9FED0E1B54EC105B53EC112B4B
:102B20002846214601F063F958B99FED0B0B284662
:102B300053EC102B214600F081FB41EC100B87ED8C
:102B4000000B0020307001B0F0BD00BF00BF00BF1F
:102B5000000000000000000000000000000024C091
:102B6000000000000000244070B540F29844C2F21A
:102B7000000420680068800653D540F2545040F6A7
:102B8000565145F25F2244F2441344F64956C2F2CC
:102B90000000C0F20A01C4F24532C4F25413C5F673
:102BA0005576C0E90063C0E9022141F2044040F2D9
:102BB0001625C4F20100C2F200050068297840F22F
:102BC0001C16C2F2000670543278481C552A287030
:102BD00021D1C1B20B2920D343F60C70C0F60000FE
:102BE000FDF7DAFB717843F6F860C0F60000FDF7F8
:102BF000D3FB70785138C1B202290CD843F6BC61BE
:102C000040B2C0F6000151F82000D6F80210D6F804
:102C10000620C0E900120020287020686FF0200113
:102C2000016020686FF00801016070BDFEE70000E0
:102C30007047000010B540F27434C2F2000441F253
:102C400000020023C4F20002C4E902302046C4E9B5
:102C50000021FEF7A3FE2046BDE81040FEF7DEBED1
:102C6000B0B58AB040F2C83401200021C2F200049D
:102C70006D460890CDE90610CDE90011CDE90211AD
:102C8000CDE9041120462946FDF788FE2046FEF7CF
:102C9000E1F920460221FDF719FE40F2F0340E2042
:102CA000C2F200040990059020462946FDF776FE01
:102CB0002046FEF7CFF920460221FDF707FE0AB0B5
:102CC000B0BD0000000000002DE9F04F81B02DEDF7
:102CD000048B40F2F807C2F2000740F2B83697EDD5
:102CE000000BC2F2000651EC100B96ED000B97EDB5
:102CF000028B96ED029B53EC102B00F043FF024633
:102D00000B4600F075FD04460D4651EC180B53ECD4
:102D1000192B00F037FF02460B4600F069FD024612
:102D20000B462046294600F089FA41EC100B00F0D2
:102D300015FA40F2700097ED001B96ED002BC2F2E1
:102D4000000090ED009BB0EE408A51EC110B53EC6B
:102D5000122BF0EE608A00F015FF58EC199B02462A
:102D60000B464846414600F043FD9FED370B5AECB9
:102D700018BB54EC105B06460F4641EC190B584645
:102D800051462A46234601F024F8A0B3304639467E
:102D90002A46234600F006FB02460B46584651469B
:102DA00000F026FD41EC100B40F2F800C2F20000EA
:102DB00090ED021B40F2B830C2F2000090ED022B01
:102DC00040F20816C2F2000651EC110B53EC122B24
:102DD00086ED000B00F0D6FE02460B464846414603
:102DE00000F006FD2A46234600F0DCFA02460B46B8
:102DF000584651461BE040F2F800C2F2000090ED48
:102E0000020B40F2B830C2F2000090ED021B40F21B
:102E10000816C2F2000651EC100B53EC112B86ED94
:102E2000009B00F0AFFE02460B464846414600F0CC
:102E3000DFFC41EC100B86ED020BBDEC048B01B006
:102E4000BDE8F08F00BF00BF00000000000024407C
:102E50002DE9F04F81B02DED048B86B09FED860BF0
:102E600040F2B0205AEC108B9FED850BC2F20000AF
:102E70004FF00009C0E90099C0E9029951EC100B2C
:102E80009FED810B40F2F80540F2080BC2F20005FD
:102E9000C2F2000BCDE9031051EC100BCDE901108B
:102EA000CDF8148005E000BF09F10809B9F1080F59
:102EB0006AD10BEB090090ED000B95ED001B53EC74
:102EC000102B51EC110B00F05DFE02460B4606463E
:102ED0000F4600F08DFC41EC100B00F03FF9B0EE16
:102EE000408A3046394642465346F0EE608A00F04A
:102EF00070FF0028D8D140F27800C2F2000090EDB7
:102F0000009B58EC184BDDE903102246434600F0C5
:102F100049FADDE9013200F091F953EC192B00F088
:102F200067FC05468B46204641462246434600F054
:102F30005FFC02460B46284640F2F805594640F22F
:102F4000080BC2F20005C2F2000B00F02BFA024699
:102F50000B463046394600F04BFC22464346DDF82E
:102F6000148000F01FFA40F2B024C2F2000494ED85
:102F7000000B02460B4651EC100B00F05FF941ECE0
:102F8000100B84ED000B8FE7002402E00834102CB6
:102F90006AD00BEB040090ED040B95ED021B53EC93
:102FA000102B51EC110B00F0EDFD02460B460646CE
:102FB0000F4600F01DFC41EC100B00F0CFF8B0EE16
:102FC000408A3046394642465346F0EE608A00F069
:102FD00000FF0028DAD140F27800C2F2000090ED44
:102FE000009B59EC185BDDE903102A464B4600F0C4
:102FF000D9F9DDE9013200F021F953EC192B00F089
:10300000F7FB80468B46284649462A464B4600F049
:10301000EFFB02460B464046DDF81480594640F26D
:10302000080BC2F2000B00F0BDF902460B46304619
:10303000394600F0DDFB2A464B4600F0B3F940F27A
:10304000B025C2F2000595ED020B02460B4651EC8D
:10305000100B00F0F3F841EC100B85ED020B40F281
:10306000F805C2F2000591E706B0BDEC048B01B093
:10307000BDE8F08F00BF00BF000000000000494025
:10308000000000000000F0BF7B14AE47E17A943FDF
:1030900041F20001C4F201010A685206FCD5C2B235
:1030A0004A60704700F0030040F2D84100EB800016
:1030B000C2F2000101EB400070470000FEF7FEF88D
:1030C000FFF794FA312040F28F61FFF7B3FDFFF76D
:1030D0000FF9FFF7CDF8FFF7EBF8FFF79BF9FFF7D4
:1030E00053F9FFF7BDFD9FED1C8A40F2182043F60F
:1030F000E062C2F20000C0F600020021B0EE480A11
:10310000F0EE480AFFF756FA40F2602043F6EC6210
:10311000C2F20000C0F600020021B0EE480AF0EE54
:10312000480AFFF747FA40F2300640F2584440F2AE
:10313000A825C2F20006C2F20004C2F2000500BFD8
:103140003220FDF7C3FFFDF7D7FA32882046294623
:103150006423FEF7EDFFF3E700C0DA4500B52DED7F
:10316000048BB0EE409AF0EE609A83B051EC190BEC
:1031700000F03CFC41EC180B18EE100A18EE901A07
:103180008DED008B002818BF0120084320F000407F
:10319000C0F17F6000F1E040C00F14D019EE101AAA
:1031A00019EE900A8DED009B002918BF01210843FC
:1031B00020F00040C0F17F6000F1E040C00F04BF8C
:1031C0000120FDF7BFF9B0EE480A03B0F0EE680A3F
:1031D000BDEC048B00BD000021F0004201F0004373
:1031E000A2F16052B2F5801F28BFD2F17F6C0BD9DB
:1031F0005FEA001C43EAC20242EB507018BF7047FE
:1032000028BF20F001007047B2F5801FBCBF1846F0
:1032100070474FEA410C1CF5001F02D2084600F02F
:1032200047BE70B500F08EFB00000089FFF7F6BFC7
:103230004FF00040A0F580007047000010B591EA03
:10324000030F48BF83F0004300F1A484841A71EB9C
:10325000030C05D2121943EB0C03001B61EB0C01AC
:103260004FEA1154A4EB135CDFF81CE11EEA430F94
:1032700018BF9EEA445F00F0748021EA045123EAFB
:103280000E0343F48013DCF1200E32D322FA0CFE3D
:1032900010EB0E0023FA0CFE41EB0E01CCF1200ED8
:1032A00003FA0EFE10EB0E00CCF1200E51F10001DE
:1032B000B1F5801F32D201EB045112FA0EF2BDE8D3
:1032C000104058BF7047401C38BF5FEA420218BF29
:1032D0007047002814BF20F0010041F100014FEABF
:1032E000410313F5001F38BF7047A1F1C04100F042
:1032F00077BB012A43EB0302ACF1200CDCF11F0E7B
:1033000032BF4FF0000E23FA0CF310EB030041EB39
:103310000451B4EB115FD0D0A1EB045101F5801141
:10332000490801EB04515FEA30000ED350F1000070
:1033300038BF12FA0EFE08D1BDE81040C9E7401CA4
:1033400038BF5FEA4202CAD1C3E7BDE810404FEA86
:10335000410313F5001F38BF7047A1F1C04100F0D1
:103360003FBB9EEA445F08D011EA5E0FBDE8104003
:1033700004BF01F0004100207047BDE8104070B567
:1033800000F0E0FA64FBBE3E0000E0FF491058BFC9
:10339000C1F140415B1058BFC3F140438B42EFF392
:1033A000008070472DE9C04130B4DFF8A4C23CEA88
:1033B000111418BF3CEA131400F0ED801CEA11143C
:1033C00081EA030544EAD57418BF1CEA131500F01E
:1033D000C880A4EB050404F17F7404F500344FF0B9
:1033E000004545EAC12145EAC32341EA505143EA79
:1033F00052534FEAC0204FEAC222994208BF90427E
:1034000000F09D804FEA13650FF24416765D4FEA97
:10341000134506FB05F7C7F1807706FB07F74FEA70
:10342000D737A7FB03687642A7FB06CEC8F58038DE
:1034300038BFA8F1010807FB08E6A6FB028C4FF095
:10344000000EE6FB03CEDCF1000CCEF1004E38BFDF
:10345000AEF1010EA6FB0C584FF00007E6FB0E87FD
:10346000A1FB08C6A0FB07CE16EB0E064FF0000529
:1034700045F10005E1FB076515F1E04E7EBFA4F5BF
:1034800080345FEA46066D4116F1800745F100057C
:103490004FEA172747EA05674FEA15254FEA066600
:1034A000A6F1DE46B6F1805F20D9384605EBC4713F
:1034B00024F0010C01EB0C11BCF1FE6F02D8F0BC42
:1034C000BDE8008124425CBF01F5801E9EEAC47FF6
:1034D00002D4F0BCBDE80081244200F13980A1F1A2
:1034E000C041F0BCBDE8004100F07ABA4FEAD020FC
:1034F00040EA41504FEAD1214FEAD22242EA4352F8
:103500004FEAD323A7FB028607FB036605FB02668F
:103510001EEA0E0F58BFA6EB0056B6EB00564FEA58
:10352000520E4EEAC37E18EB0E0E56EB530EBCD570
:1035300018EB02085E417F1C55F10005B5E74FF41A
:1035400080154FF000074FF000064FF00008ACE781
:1035500001F1C04101F000414FF00000F0BCBDE8B6
:1035600000810CEA131511EA0C1F00D00CE013EADD
:103570000C1F00F026804FF0000081EA030101F0EB
:103580000041F0BCBDE80081F0BCBDE8004181EA2B
:10359000030100F025BAF0BCBDE8004170B500F0B1
:1035A000D1F900BF097EFC3E00F007B84FF00000E3
:1035B00081EA030101F00041704781EA030100F054
:1035C0000FBAF0BCBDE8004122494FF0000070473F
:1035D000FFFDFBF9F7F5F4F2F0EEEDEBE9E8E6E4D8
:1035E000E3E1E0DEDDDBDAD8D7D5D4D3D1D0CFCD5F
:1035F000CCCBCAC8C7C6C5C4C2C1C0BFBEBDBCBB98
:10360000BAB9B8B7B6B5B4B3B2B1B0AFAEADACAB92
:10361000AAA9A8A8A7A6A5A4A3A3A2A1A09F9F9E6C
:103620009D9C9C9B9A99999897979695959493931E
:10363000929191908F8F8E8E8D8C8C8B8B8A8989B5
:103640008888878786858584848383828281818038
:103650000000FF070000F87F51EA030C17D41CF5A7
:10366000801F58BFBCF5801F00F10680994218BF2B
:10367000704708BF9042704707D711F5801F58BFA9
:1036800013F5801F19D499427047894270471CF581
:10369000801F08D5BCF5801FF7D58B4218BF704737
:1036A00008BF824270474FF4001C1CEB410F38BF2B
:1036B0001CEB430F01D28B42704770B500F042F90A
:1036C000922449004FF000514FF08053FFF75EBE47
:1036D00010F0004248BF4042B0FA80F310FA03F104
:1036E0000AD0C3F11D0303F5806302EB03524FEAD6
:1036F000415002EBD12170474FF0000070470000AD
:1037000051EA030C17D41CF5801F58BFBCF5801F6D
:1037100000F10680994218BF704708BF9042704779
:1037200007D711F5801F58BF13F5801F19D4994290
:103730007047894270471CF5801F08D5BCF5801F73
:10374000F7D58B4218BF704708BF824270474FF4CD
:10375000001C1CEB410F38BF1CEB430F01D28B4206
:10376000704770B500F0EEF8922449004FF0805198
:103770004FF00053FFF70ABE51EA030C17D41CF5B3
:10378000801F58BFBCF5801F00F10680994218BF0A
:10379000704708BF9042704707D711F5801F58BF88
:1037A00013F5801F19D499427047894270471CF560
:1037B000801F08D5BCF5801FF7D58B4218BF704716
:1037C00008BF824270474FF4001C1CEB410F38BF0A
:1037D0001CEB430F01D28B42704770B500F0B2F87A
:1037E000922449004FF000514FF08053FFF7CEBDB7
:1037F00070B5DFF848C11CEA111E1EBF1CEA131584
:103800009EEA0C0F95EA0C0F00F06F8081EA03042A
:103810004EEAD47EAE4421EA4C1123EA4C1341F423
:10382000801143F48013AEF17F7EA1FB024CA0FB1C
:103830000365361955EB0C05A1FB034C4CF1000355
:10384000A0FB021C16EB0C06654153F10003094274
:1038500018BF46F0010613F4007F0BD14FEA033185
:103860004FEA053041EA155140EA165034036FF033
:1038700003020AE04FEAC3214FEAC52041EA55514D
:1038800040EA5650F4026FF0020202EB2E4201EBC6
:10389000025585EACE710AD05FEA440C18BF24F0C5
:1038A000004450F1000041F1000120EAD47040F2E0
:1038B000FE7C624500D270BDA84214BF4FF0804428
:1038C0004FF04044002E08BF0024BEF1806FA8BF17
:1038D000A1F1C041BDE8704080F2828001F1C04199
:1038E00001F000414FF0000070470CEA13159EEA0A
:1038F0000C0F18BF95EA0C0F06D081EA030E4FF0AB
:1039000000000EF0004170BD00F01CF88900013E7F
:1039100000F007B800F009B84FEA430C5FEA5C5CBE
:1039200008D081EA030100F05BB84FEA410C5FEA7E
:103930005C5CF6D102494FF0000070470000FF07C1
:103940000000F87F0EF1020E2EF0030E5EF8046BFD
:10395000364205D4012A43EB030515F5001F12D8A2
:10396000012841EB010C1CF5001F0CD80ED14FEAC9
:10397000D17C0CEB4C0C0CF1020C15F5001F08BFB0
:103980004CEBD37C04E04FF0080C01E04FEAD37C11
:103990000CEB4C0526FA05F606F00706B6F1040C0A
:1039A00006D20EEB860CBDE870404CF0010C60476F
:1039B000DFE80CF0090B02024FF00041A1F50021F5
:1039C0004FF0000070BD19461046012851EB01046C
:1039D00018BFD4F5001484BF002001F0004170BD71
:1039E0000808A0F500114FEA310170472DE9F041B8
:1039F00001F5801CBCF5001FC0F2A9804FEA115CE4
:103A000021EA0C5141F480110CF1FD0C5FEA5C0CD1
:103A10000CF5C07C01D340004941890241EA905134
:103A200087022EA48E0EA45D0A0C04FB04F602FB92
:103A300006F6C6F14046A4FB0662F60D46EA4226AB
:103A400006FB06F4A4FB01235242C3F1404338BFF6
:103A50005B1EA6FB02420024E6FB0324D20B42EAD3
:103A60004446A6FB0623A1FB02E2A3FB07E4E3FB1B
:103A700061426442C2F1404E38BFAEF1010EA6FB76
:103A800004234FF00002E6FB0E32A2FB0346340093
:103A9000E2FB6264A1FB06E6A4FB07E8E4FB6168C5
:103AA0007642C8F1405838BFA8F10108A2FB06E4ED
:103AB000A3FB08E5E2FB6854A1FB05E6A7FB04E8CD
:103AC000E1FB648618F1200556F10006A80940EADA
:103AD0008660B109A8F11B0808F03F08B8F10A0F89
:103AE0001CD901EB0C51BDE8F08100BFFCF5EEE8FC
:103AF000E2DDD8D3CFCBC7C3C0BDB9B6B4B1AEAC8D
:103B0000A9A7A5A3A19F9D9B9A9896959392908F04
:103B10008D8C8B898887868584838281A0FB006851
:103B200000FB01F208EB4208B8EB872807D53418F0
:103B300058EB0104D5D5401C51F10001D1E7341AEE
:103B400078EB0104CDD4401E71F10001C9E75FEAB2
:103B50004C0C5FEA9C5C0DD105D301F000414FF0A5
:103B60000000BDE8F081BDE8F04170B5FFF7EAFE66
:103B70006DDBFFBEBDE8F04101494FF0000070472A
:103B80000000F87F10B591EA030F48BF83F00043AF
:103B90003FF55CAB841A71EB030C07D28CF0004C40
:103BA000121943EB0C03001B61EB0C014FEA11549B
:103BB000A4EB135CDFF8A4E11EEA430F18BF9EEAF2
:103BC000445F00F0B48021EA045123EA6E035242BC
:103BD000C3EB6E0338BF5B1EDCF1200E25D322FA47
:103BE0000CFE10EB0E0043FA0CFE41EB0E01CCF183
:103BF000200E03FA0EFE10EB0E00CCF1200E51F158
:103C0000000129D401EB045112FA0EF2BDE8104074
:103C100058BF7047401C1CBFB2F1004F70470028CE
:103C20000CBF491C20F00100704712EB020E43EB61
:103C3000030218BF4FF0010E4EEA4202ACF1200C15
:103C4000DCF11E0E56D943FA0CFE10EB0E00CCF13F
:103C50001E0E51F1FF31D5D50EF1010E12FA0EFEF6
:103C6000404141EB010101EB445C5FEA5C5C10D92F
:103C700001EB045110EBDE7038BFBEF1004FBDE820
:103C8000104018BF704700280CBF491C20F00100ED
:103C9000704734D24FEAD42C24F4006411F500119B
:103CA0001BD0B1FA81F20B3AA41AA41ED2F1200360
:103CB000914030FA03F31943904001EBCC7101EBD2
:103CC0000451002CBDE81040A8BF704701F1C0416D
:103CD00001F000414FF000007047B0FA80F310FA95
:103CE00003F102D1BDE810407047E41A173C4805C3
:103CF000C90AE2E701EB0451BDE8104070474910E2
:103D00004FEA300001EB0451BDE8104002E04FF0F3
:103D1000000170474A0008BF0042F8D0B2F5001F0A
:103D200028BF704701F000414FF0000070479EEA45
:103D3000445F07D011EA5E0FBDE8104004BF0021C8
:103D400000207047BDE8104070B5FFF7FBFD00BFD5
:103D500040DFF63E104683F0004170470000E0FF70
:103D600043004FEAD30C4FEA3C0C43401FBF4007CF
:103D70000CF1605113F0FE4F70471CF0006F03D13F
:103D80000CF00041002070470CF0004343EA5070F3
:103D900040EACC0010B500F038F800BF00000092F7
:103DA0004FEA0001FFF71CBE4FF00041A1F50021D2
:103DB0004FF00000704710B5FFF74EFC0CBF01201C
:103DC000002010BD10B5FFF747FC14BF01200020F4
:103DD00010BD10B5FFF794FC8CBF0120002010BD72
:103DE00010B5FFF78DFC2CBF0120002010BD10B5D1
:103DF000FFF7C2FC94BF0120002010BD10B5FFF7F3
:103E0000BBFC34BF0120002010BD0EF1020E2EF0CD
:103E1000030E5EF8044B244204D44FEA4102B2F18F
:103E20007F4F11D84FEA4003B3F17F4F0CD80ED12A
:103E30004FEAD07C0CEB4C0C0CF1020CB2F17F4F32
:103E400008BF4CEBD17C04E04FF0080C01E04FEAD6
:103E5000D17C0CEB4C0324FA03F404F00704B4F116
:103E6000040C06D20EEB840CBDE810404CF0010CA3
:103E70006047DFE80CF0070802024FF00040A0F5B1
:103E8000800010BD0846420018BFD2F1807288BF82
:103E900000F0004010BDF1EE100A4FF6FF71C0F2C5
:103EA000C03120EA010040F04070E1EE100A704796
:103EB000FF2141EAD050C0057047000040050020B6
:103EC0005005002048050020000000000000000010
:103ED00001020304060708090000000001020304B0
:103EE000CDCCCC3E0000000000000000CDCCCC3E8C
:103EF00000000000000000005468652063617365E5
:103F00002069732069732025630D0A0054686520B9
:103F1000636F6C6C6563746564206E6F206F6620E0
:103F2000646174612069733A20256400503F000881
:103F30000000002098000000EC010008E83F0008A5
:103F400098000020F80A00000C02000800000000A1
:103F500001000000000000000000000000C06240FE
:103F60000000000000C062C00000000000C062400D
:103F70000000000000C062C00000000000FFBF4061
:103F800008000000000000000000000000004240A7
:103F90000024F400000000008A0E9F79EB5858407E
:103FA0003333333333330340333333333333034027
:103FB0000000000000000000000000000000000001
:103FC00000000000000034400000000000409F405E
:103FD00001000000010000000000000000000000DF
:083FE0000100000010000000C8
:040000050800018965
:00000001FF
